{
  "contractName": "SearchableEncryptionScheme",
  "abi": [
    {
      "constant": false,
      "inputs": [
        {
          "internalType": "bytes32",
          "name": "keyword",
          "type": "bytes32"
        },
        {
          "internalType": "bytes32",
          "name": "encryptedData",
          "type": "bytes32"
        }
      ],
      "name": "store",
      "outputs": [],
      "payable": false,
      "stateMutability": "nonpayable",
      "type": "function"
    },
    {
      "constant": true,
      "inputs": [
        {
          "internalType": "bytes32",
          "name": "keyword",
          "type": "bytes32"
        }
      ],
      "name": "retrieve",
      "outputs": [
        {
          "internalType": "bytes32[]",
          "name": "",
          "type": "bytes32[]"
        }
      ],
      "payable": false,
      "stateMutability": "view",
      "type": "function"
    }
  ],
  "bytecode": "0x608060405234801561001057600080fd5b506101d5806100206000396000f3fe608060405234801561001057600080fd5b50600436106100365760003560e01c80634000e4f61461003b578063d1ed74ad14610073575b600080fd5b6100716004803603604081101561005157600080fd5b8101908080359060200190929190803590602001909291905050506100f6565b005b61009f6004803603602081101561008957600080fd5b8101908080359060200190929190505050610136565b6040518080602001828103825283818151815260200191508051906020019060200280838360005b838110156100e25780820151818401526020810190506100c7565b505050509050019250505060405180910390f35b6000808381526020019081526020016000208190806001815401808255809150509060018203906000526020600020016000909192909190915055505050565b606060008083815260200190815260200160002080548060200260200160405190810160405280929190818152602001828054801561019457602002820191906000526020600020905b815481526020019060010190808311610180575b5050505050905091905056fea265627a7a723158201ea7f1e62f3caa683c3975985281d3f2a5e12343221894762667dcac249041bd64736f6c63430005100032",
  "source": "// SPDX-License-Identifier: MIT\npragma solidity ^0.5.0;\n\n// contract SimpleStorage {\n//   uint storedData;\n\n//   function set(uint x) public {\n//     storedData = x;\n//   }\n\n//   function get() public view returns (uint) {\n//     return storedData;\n//   }\n// }\n\n// Create a smart contract to implement Searchable Encryption Scheme\ncontract SearchableEncryptionScheme {\n  // Create a mapping of keywords to data\n  mapping(bytes32 => bytes32[]) keywordToData;\n  \n  // Allow authenticated user to store mapping of keyword to encrypted data\n  function store(bytes32 keyword, bytes32 encryptedData) public {\n    keywordToData[keyword].push(encryptedData);\n  }\n\n  // Allow authenticated user to retrieve encrypted data using keyword\n  function retrieve(bytes32 keyword) public view returns (bytes32[] memory) {\n    return keywordToData[keyword];\n  }\n\n}\n\n// Create a smart contract to implement Searchable Symmetric Encryption Scheme\n",
  "sourcePath": "D:\\Lang\\RIS\\SearchableEncryption\\contracts\\SimpleStorage.sol",
  "compiler": {
    "name": "solc",
    "version": "0.5.16+commit.9c3226ce.Emscripten.clang"
  },
  "schemaVersion": "3.4.3",
  "updatedAt": "2021-11-13T19:58:22.773Z",
  "devdoc": {
    "methods": {}
  },
  "userdoc": {
    "methods": {}
  }
}