{
  "contractName": "SearchableEncryptionScheme",
  "abi": [
    {
      "constant": false,
      "inputs": [
        {
          "internalType": "string",
          "name": "keyword",
          "type": "string"
        },
        {
          "internalType": "string",
          "name": "encryptedData",
          "type": "string"
        }
      ],
      "name": "store",
      "outputs": [],
      "payable": false,
      "stateMutability": "nonpayable",
      "type": "function"
    },
    {
      "constant": false,
      "inputs": [
        {
          "internalType": "string[]",
          "name": "keywords",
          "type": "string[]"
        },
        {
          "internalType": "string",
          "name": "encryptedData",
          "type": "string"
        }
      ],
      "name": "storeMultiple",
      "outputs": [],
      "payable": false,
      "stateMutability": "nonpayable",
      "type": "function"
    },
    {
      "constant": true,
      "inputs": [
        {
          "internalType": "string",
          "name": "keyword",
          "type": "string"
        }
      ],
      "name": "retrieve",
      "outputs": [
        {
          "internalType": "string",
          "name": "",
          "type": "string"
        }
      ],
      "payable": false,
      "stateMutability": "view",
      "type": "function"
    }
  ],
  "bytecode": "0x608060405234801561001057600080fd5b50610746806100206000396000f3fe608060405234801561001057600080fd5b50600436106100415760003560e01c806364cc732714610046578063e2fa108314610076578063f641090c14610092575b600080fd5b610060600480360361005b9190810190610439565b6100ae565b60405161006d91906105af565b60405180910390f35b610090600480360361008b91908101906103cd565b61016e565b005b6100ac60048036036100a7919081019061047a565b6101d5565b005b60606000826040516100c09190610598565b90815260200160405180910390208054600181600116156101000203166002900480601f0160208091040260200160405190810160405280929190818152602001828054600181600116156101000203166002900480156101625780601f1061013757610100808354040283529160200191610162565b820191906000526020600020905b81548152906001019060200180831161014557829003601f168201915b50505050509050919050565b60008090505b82518110156101d05781600084838151811061018c57fe5b60200260200101516040516101a19190610581565b908152602001604051809103902090805190602001906101c292919061020c565b508080600101915050610174565b505050565b806000836040516101e69190610598565b9081526020016040518091039020908051906020019061020792919061020c565b505050565b828054600181600116156101000203166002900490600052602060002090601f016020900481019282601f1061024d57805160ff191683800117855561027b565b8280016001018555821561027b579182015b8281111561027a57825182559160200191906001019061025f565b5b509050610288919061028c565b5090565b6102ae91905b808211156102aa576000816000905550600101610292565b5090565b90565b600082601f8301126102c257600080fd5b81356102d56102d0826105fe565b6105d1565b9150818183526020840193506020810190508360005b8381101561031b57813586016103018882610325565b8452602084019350602083019250506001810190506102eb565b5050505092915050565b600082601f83011261033657600080fd5b813561034961034482610626565b6105d1565b9150808252602083016020830185838301111561036557600080fd5b6103708382846106b0565b50505092915050565b600082601f83011261038a57600080fd5b813561039d61039882610652565b6105d1565b915080825260208301602083018583830111156103b957600080fd5b6103c48382846106b0565b50505092915050565b600080604083850312156103e057600080fd5b600083013567ffffffffffffffff8111156103fa57600080fd5b610406858286016102b1565b925050602083013567ffffffffffffffff81111561042357600080fd5b61042f85828601610379565b9150509250929050565b60006020828403121561044b57600080fd5b600082013567ffffffffffffffff81111561046557600080fd5b61047184828501610379565b91505092915050565b6000806040838503121561048d57600080fd5b600083013567ffffffffffffffff8111156104a757600080fd5b6104b385828601610379565b925050602083013567ffffffffffffffff8111156104d057600080fd5b6104dc85828601610379565b9150509250929050565b60006104f182610689565b6104fb8185610694565b935061050b8185602086016106bf565b610514816106f2565b840191505092915050565b600061052a82610689565b61053481856106a5565b93506105448185602086016106bf565b80840191505092915050565b600061055b8261067e565b61056581856106a5565b93506105758185602086016106bf565b80840191505092915050565b600061058d8284610550565b915081905092915050565b60006105a4828461051f565b915081905092915050565b600060208201905081810360008301526105c981846104e6565b905092915050565b6000604051905081810181811067ffffffffffffffff821117156105f457600080fd5b8060405250919050565b600067ffffffffffffffff82111561061557600080fd5b602082029050602081019050919050565b600067ffffffffffffffff82111561063d57600080fd5b601f19601f8301169050602081019050919050565b600067ffffffffffffffff82111561066957600080fd5b601f19601f8301169050602081019050919050565b600081519050919050565b600081519050919050565b600082825260208201905092915050565b600081905092915050565b82818337600083830152505050565b60005b838110156106dd5780820151818401526020810190506106c2565b838111156106ec576000848401525b50505050565b6000601f19601f830116905091905056fea365627a7a723158200bcbd9d65d519b3475c13f130d1d5a142e9b547774b7678edd559fd73b10f0d46c6578706572696d656e74616cf564736f6c63430005100040",
  "source": "// SPDX-License-Identifier: MIT\npragma solidity ^0.5.0;\npragma experimental ABIEncoderV2;\n\n// contract SimpleStorage {\n//   uint storedData;\n\n//   function set(uint x) public {\n//     storedData = x;\n//   }\n\n//   function get() public view returns (uint) {\n//     return storedData;\n//   }\n// }\n\n// Create a smart contract to implement Searchable Encryption Scheme\ncontract SearchableEncryptionScheme {\n  // Create a mapping of keywords to data\n  mapping(string => string) keywordToData;\n  \n  // Allow authenticated user to store mapping of keyword to encrypted data\n  function store(string memory keyword, string memory encryptedData) public {\n    keywordToData[keyword]=encryptedData;\n  }\n\n  // Store array keywords and encrypted data in a mapping\n  function storeMultiple(string[] memory keywords, string memory encryptedData) public {\n\n    for (uint i = 0; i < keywords.length; i++) {\n      keywordToData[keywords[i]] = encryptedData;\n    }\n  }\n\n  // Allow authenticated user to retrieve encrypted data using keyword\n  function retrieve(string memory keyword) public view returns (string memory) {\n    return keywordToData[keyword];\n  }\n\n}\n\n// Create a smart contract to implement Searchable Symmetric Encryption Scheme\n",
  "sourcePath": "D:\\Lang\\RIS\\SearchableEncryption\\contracts\\SearchableEncryptionScheme.sol",
  "compiler": {
    "name": "solc",
    "version": "0.5.16+commit.9c3226ce.Emscripten.clang"
  },
  "schemaVersion": "3.4.3",
  "updatedAt": "2021-11-15T21:42:28.126Z",
  "networkType": "ethereum",
  "devdoc": {
    "methods": {}
  },
  "userdoc": {
    "methods": {}
  }
}