{
  "contractName": "SearchableEncryptionScheme",
  "abi": [
    {
      "constant": false,
      "inputs": [
        {
          "internalType": "string",
          "name": "keyword",
          "type": "string"
        },
        {
          "internalType": "string",
          "name": "encryptedData",
          "type": "string"
        }
      ],
      "name": "store",
      "outputs": [],
      "payable": false,
      "stateMutability": "nonpayable",
      "type": "function"
    },
    {
      "constant": false,
      "inputs": [
        {
          "internalType": "string[]",
          "name": "keywords",
          "type": "string[]"
        },
        {
          "internalType": "string",
          "name": "encryptedData",
          "type": "string"
        }
      ],
      "name": "storeMultiple",
      "outputs": [],
      "payable": false,
      "stateMutability": "nonpayable",
      "type": "function"
    },
    {
      "constant": true,
      "inputs": [
        {
          "internalType": "string",
          "name": "keyword",
          "type": "string"
        }
      ],
      "name": "retrieve",
      "outputs": [
        {
          "internalType": "string",
          "name": "",
          "type": "string"
        }
      ],
      "payable": false,
      "stateMutability": "view",
      "type": "function"
    }
  ],
  "bytecode": "0x608060405234801561001057600080fd5b506107ac806100206000396000f3fe608060405234801561001057600080fd5b50600436106100415760003560e01c806364cc732714610046578063e2fa108314610076578063f641090c14610092575b600080fd5b610060600480360361005b919081019061049f565b6100ae565b60405161006d9190610615565b60405180910390f35b610090600480360361008b9190810190610433565b610184565b005b6100ac60048036036100a791908101906104e0565b610213565b005b60606000826040516100c091906105fe565b90815260200160405180910390206000815481106100da57fe5b906000526020600020018054600181600116156101000203166002900480601f0160208091040260200160405190810160405280929190818152602001828054600181600116156101000203166002900480156101785780601f1061014d57610100808354040283529160200191610178565b820191906000526020600020905b81548152906001019060200180831161015b57829003601f168201915b50505050509050919050565b60008090505b825181101561020e5760008382815181106101a157fe5b60200260200101516040516101b691906105e7565b90815260200160405180910390208290806001815401808255809150509060018203906000526020600020016000909192909190915090805190602001906101ff929190610272565b5050808060010191505061018a565b505050565b60008260405161022391906105fe565b908152602001604051809103902081908060018154018082558091505090600182039060005260206000200160009091929091909150908051906020019061026c929190610272565b50505050565b828054600181600116156101000203166002900490600052602060002090601f016020900481019282601f106102b357805160ff19168380011785556102e1565b828001600101855582156102e1579182015b828111156102e05782518255916020019190600101906102c5565b5b5090506102ee91906102f2565b5090565b61031491905b808211156103105760008160009055506001016102f8565b5090565b90565b600082601f83011261032857600080fd5b813561033b61033682610664565b610637565b9150818183526020840193506020810190508360005b838110156103815781358601610367888261038b565b845260208401935060208301925050600181019050610351565b5050505092915050565b600082601f83011261039c57600080fd5b81356103af6103aa8261068c565b610637565b915080825260208301602083018583830111156103cb57600080fd5b6103d6838284610716565b50505092915050565b600082601f8301126103f057600080fd5b81356104036103fe826106b8565b610637565b9150808252602083016020830185838301111561041f57600080fd5b61042a838284610716565b50505092915050565b6000806040838503121561044657600080fd5b600083013567ffffffffffffffff81111561046057600080fd5b61046c85828601610317565b925050602083013567ffffffffffffffff81111561048957600080fd5b610495858286016103df565b9150509250929050565b6000602082840312156104b157600080fd5b600082013567ffffffffffffffff8111156104cb57600080fd5b6104d7848285016103df565b91505092915050565b600080604083850312156104f357600080fd5b600083013567ffffffffffffffff81111561050d57600080fd5b610519858286016103df565b925050602083013567ffffffffffffffff81111561053657600080fd5b610542858286016103df565b9150509250929050565b6000610557826106ef565b61056181856106fa565b9350610571818560208601610725565b61057a81610758565b840191505092915050565b6000610590826106ef565b61059a818561070b565b93506105aa818560208601610725565b80840191505092915050565b60006105c1826106e4565b6105cb818561070b565b93506105db818560208601610725565b80840191505092915050565b60006105f382846105b6565b915081905092915050565b600061060a8284610585565b915081905092915050565b6000602082019050818103600083015261062f818461054c565b905092915050565b6000604051905081810181811067ffffffffffffffff8211171561065a57600080fd5b8060405250919050565b600067ffffffffffffffff82111561067b57600080fd5b602082029050602081019050919050565b600067ffffffffffffffff8211156106a357600080fd5b601f19601f8301169050602081019050919050565b600067ffffffffffffffff8211156106cf57600080fd5b601f19601f8301169050602081019050919050565b600081519050919050565b600081519050919050565b600082825260208201905092915050565b600081905092915050565b82818337600083830152505050565b60005b83811015610743578082015181840152602081019050610728565b83811115610752576000848401525b50505050565b6000601f19601f830116905091905056fea365627a7a7231582081a593ed298855e2de806706d12a39e5d93fa9759d9586ae99e9643703507eb56c6578706572696d656e74616cf564736f6c63430005100040",
  "source": "// SPDX-License-Identifier: MIT\r\npragma solidity ^0.5.0;\r\npragma experimental ABIEncoderV2;\r\n\r\n// contract SimpleStorage {\r\n//   uint storedData;\r\n\r\n//   function set(uint x) public {\r\n//     storedData = x;\r\n//   }\r\n\r\n//   function get() public view returns (uint) {\r\n//     return storedData;\r\n//   }\r\n// }\r\n\r\n// Create a smart contract to implement Searchable Encryption Scheme\r\ncontract SearchableEncryptionScheme {\r\n\r\n  // function getBytes(uint startindex, uint endindex, string [] memory arr) public view returns(bytes memory serialized){\r\n\r\n  //     require(endindex >= startindex);\r\n      \r\n  //     if(endindex > (arr.length - 1)){\r\n  //         endindex = arr.length - 1;\r\n  //     }\r\n      \r\n  //     //64 byte is needed for safe storage of a single string.\r\n  //     //((endindex - startindex) + 1) is the number of strings we want to pull out.\r\n  //     uint offset = 64*((endindex - startindex) + 1);\r\n      \r\n  //     bytes memory buffer = new  bytes(offset); \r\n  //     string memory out1  = new string(32);\r\n      \r\n      \r\n  //     for(uint i = startindex; i <= endindex; i++){\r\n  //         out1 = arr[i];\r\n          \r\n  //         stringToBytes(offset, bytes(out1), buffer);\r\n  //         offset -= sizeOfString(out1);\r\n  //     }\r\n    \r\n  //   return (buffer);\r\n  // }\r\n\r\n  // Create a mapping of keywords to data\r\n  mapping(string => string[]) keywordToData;\r\n  \r\n  // Allow authenticated user to store mapping of keyword to encrypted data\r\n  function store(string memory keyword, string memory encryptedData) public {\r\n    keywordToData[keyword].push(encryptedData);\r\n  }\r\n\r\n  // Store array keywords and encrypted data in a mapping\r\n  function storeMultiple(string[] memory keywords, string memory encryptedData) public {\r\n\r\n    for (uint i = 0; i < keywords.length; i++) {\r\n      keywordToData[keywords[i]].push(encryptedData);\r\n    }\r\n  }\r\n\r\n  // Allow authenticated user to retrieve encrypted data using keyword\r\n  function retrieve(string memory keyword) public view returns (string memory) {\r\n    // Stringify and return\r\n    // encode array of strings\r\n    // getBytes(0, keywordToData[keyword].length, keywordToData[keyword]);\r\n    return keywordToData[keyword][0];\r\n  }\r\n\r\n}\r\n\r\n// Create a smart contract to implement Searchable Symmetric Encryption Scheme\r\n",
  "sourcePath": "D:\\Lang\\RIS\\SearchableEncryption\\contracts\\SearchableEncryptionScheme.sol",
  "compiler": {
    "name": "solc",
    "version": "0.5.16+commit.9c3226ce.Emscripten.clang"
  },
  "schemaVersion": "3.4.3",
  "updatedAt": "2021-11-18T17:30:18.130Z",
  "networkType": "ethereum",
  "devdoc": {
    "methods": {}
  },
  "userdoc": {
    "methods": {}
  }
}