{
  "contractName": "SearchableEncryptionScheme",
  "abi": [
    {
      "constant": true,
      "inputs": [
        {
          "internalType": "uint256",
          "name": "startindex",
          "type": "uint256"
        },
        {
          "internalType": "uint256",
          "name": "endindex",
          "type": "uint256"
        },
        {
          "internalType": "string[]",
          "name": "arr",
          "type": "string[]"
        }
      ],
      "name": "getBytes",
      "outputs": [
        {
          "internalType": "bytes",
          "name": "serialized",
          "type": "bytes"
        }
      ],
      "payable": false,
      "stateMutability": "view",
      "type": "function"
    },
    {
      "constant": false,
      "inputs": [
        {
          "internalType": "string",
          "name": "keyword",
          "type": "string"
        },
        {
          "internalType": "string",
          "name": "encryptedData",
          "type": "string"
        }
      ],
      "name": "store",
      "outputs": [],
      "payable": false,
      "stateMutability": "nonpayable",
      "type": "function"
    },
    {
      "constant": false,
      "inputs": [
        {
          "internalType": "string[]",
          "name": "keywords",
          "type": "string[]"
        },
        {
          "internalType": "string",
          "name": "encryptedData",
          "type": "string"
        }
      ],
      "name": "storeMultiple",
      "outputs": [],
      "payable": false,
      "stateMutability": "nonpayable",
      "type": "function"
    },
    {
      "constant": true,
      "inputs": [
        {
          "internalType": "string",
          "name": "keyword",
          "type": "string"
        }
      ],
      "name": "retrieve",
      "outputs": [
        {
          "internalType": "string",
          "name": "",
          "type": "string"
        }
      ],
      "payable": false,
      "stateMutability": "view",
      "type": "function"
    }
  ],
  "bytecode": "0x6080604052610a85806100136000396000f3fe608060405234801561001057600080fd5b506004361061004c5760003560e01c806364cc7327146100515780638aceaec714610081578063e2fa1083146100b1578063f641090c146100cd575b600080fd5b61006b60048036036100669190810190610679565b6100e9565b60405161007891906108b1565b60405180910390f35b61009b60048036036100969190810190610726565b6101bf565b6040516100a8919061088f565b60405180910390f35b6100cb60048036036100c6919081019061060d565b6102a9565b005b6100e760048036036100e291908101906106ba565b610338565b005b60606000826040516100fb9190610878565b908152602001604051809103902060028154811061011557fe5b906000526020600020018054600181600116156101000203166002900480601f0160208091040260200160405190810160405280929190818152602001828054600181600116156101000203166002900480156101b35780601f10610188576101008083540402835291602001916101b3565b820191906000526020600020905b81548152906001019060200180831161019657829003601f168201915b50505050509050919050565b6060838310156101ce57600080fd5b60018251039250600060018585030160400290506060816040519080825280601f01601f1916602001820160405280156102175781602001600182028038833980820191505090505b509050606060206040519080825280601f01601f1916602001820160405280156102505781602001600182028038833980820191505090505b50905060008790505b86811161029b5785818151811061026c57fe5b60200260200101519150610281848385610397565b61028a826103f8565b840393508080600101915050610259565b508193505050509392505050565b60008090505b82518110156103335760008382815181106102c657fe5b60200260200101516040516102db9190610861565b9081526020016040518091039020829080600181540180825580915050906001820390600052602060002001600090919290919091509080519060200190610324929190610437565b505080806001019150506102af565b505050565b6000826040516103489190610878565b9081526020016040518091039020819080600181540180825580915050906001820390600052602060002001600090919290919091509080519060200190610391929190610437565b50505050565b600060208351816103a457fe5b049050600060208451816103b457fe5b0611156103c45780806001019150505b60018101905060005b818110156103f15760208102840151858401526020850394506001810190506103cd565b5050505050565b6000602082518161040557fe5b0490506000602083518161041557fe5b06146104245780806001019150505b8080600101915050602081029050919050565b828054600181600116156101000203166002900490600052602060002090601f016020900481019282601f1061047857805160ff19168380011785556104a6565b828001600101855582156104a6579182015b828111156104a557825182559160200191906001019061048a565b5b5090506104b391906104b7565b5090565b6104d991905b808211156104d55760008160009055506001016104bd565b5090565b90565b600082601f8301126104ed57600080fd5b81356105006104fb82610900565b6108d3565b9150818183526020840193506020810190508360005b83811015610546578135860161052c8882610550565b845260208401935060208301925050600181019050610516565b5050505092915050565b600082601f83011261056157600080fd5b813561057461056f82610928565b6108d3565b9150808252602083016020830185838301111561059057600080fd5b61059b8382846109d8565b50505092915050565b600082601f8301126105b557600080fd5b81356105c86105c382610954565b6108d3565b915080825260208301602083018583830111156105e457600080fd5b6105ef8382846109d8565b50505092915050565b60008135905061060781610a2b565b92915050565b6000806040838503121561062057600080fd5b600083013567ffffffffffffffff81111561063a57600080fd5b610646858286016104dc565b925050602083013567ffffffffffffffff81111561066357600080fd5b61066f858286016105a4565b9150509250929050565b60006020828403121561068b57600080fd5b600082013567ffffffffffffffff8111156106a557600080fd5b6106b1848285016105a4565b91505092915050565b600080604083850312156106cd57600080fd5b600083013567ffffffffffffffff8111156106e757600080fd5b6106f3858286016105a4565b925050602083013567ffffffffffffffff81111561071057600080fd5b61071c858286016105a4565b9150509250929050565b60008060006060848603121561073b57600080fd5b6000610749868287016105f8565b935050602061075a868287016105f8565b925050604084013567ffffffffffffffff81111561077757600080fd5b610783868287016104dc565b9150509250925092565b600061079882610980565b6107a281856109a1565b93506107b28185602086016109e7565b6107bb81610a1a565b840191505092915050565b60006107d182610996565b6107db81856109b2565b93506107eb8185602086016109e7565b6107f481610a1a565b840191505092915050565b600061080a82610996565b61081481856109c3565b93506108248185602086016109e7565b80840191505092915050565b600061083b8261098b565b61084581856109c3565b93506108558185602086016109e7565b80840191505092915050565b600061086d8284610830565b915081905092915050565b600061088482846107ff565b915081905092915050565b600060208201905081810360008301526108a9818461078d565b905092915050565b600060208201905081810360008301526108cb81846107c6565b905092915050565b6000604051905081810181811067ffffffffffffffff821117156108f657600080fd5b8060405250919050565b600067ffffffffffffffff82111561091757600080fd5b602082029050602081019050919050565b600067ffffffffffffffff82111561093f57600080fd5b601f19601f8301169050602081019050919050565b600067ffffffffffffffff82111561096b57600080fd5b601f19601f8301169050602081019050919050565b600081519050919050565b600081519050919050565b600081519050919050565b600082825260208201905092915050565b600082825260208201905092915050565b600081905092915050565b6000819050919050565b82818337600083830152505050565b60005b83811015610a055780820151818401526020810190506109ea565b83811115610a14576000848401525b50505050565b6000601f19601f8301169050919050565b610a34816109ce565b8114610a3f57600080fd5b5056fea365627a7a7231582039c631d9647e53c34b47cddea1064e4bef41bd71ed3dd3ef0ccc32d88f101f576c6578706572696d656e74616cf564736f6c63430005100040",
  "source": "// SPDX-License-Identifier: MIT\npragma solidity ^0.5.0;\npragma experimental ABIEncoderV2;\n\nimport {Seriality} from './Seriality.sol';\n\n// contract SimpleStorage {\n//   uint storedData;\n\n//   function set(uint x) public {\n//     storedData = x;\n//   }\n\n//   function get() public view returns (uint) {\n//     return storedData;\n//   }\n// }\n\n// Create a smart contract to implement Searchable Encryption Scheme\ncontract SearchableEncryptionScheme is Seriality {\n  function getBytes(uint startindex, uint endindex, string [] memory arr) public view returns(bytes memory serialized){\n\n      require(endindex >= startindex);\n      endindex = arr.length - 1;\n      \n      //64 byte is needed for safe storage of a single string.\n      //((endindex - startindex) + 1) is the number of strings we want to pull out.\n      uint offset = 64*((endindex - startindex) + 1);\n      \n      bytes memory buffer = new  bytes(offset); \n      string memory out1  = new string(32);\n      \n      \n      for(uint i = startindex; i <= endindex; i++){\n          out1 = arr[i];\n          \n          stringToBytes(offset, bytes(out1), buffer);\n          offset -= sizeOfString(out1);\n      }\n    \n    return (buffer);\n  }\n\n  // Create a mapping of keywords to data\n  mapping(string => string[]) keywordToData;\n  \n  // Allow authenticated user to store mapping of keyword to encrypted data\n  function store(string memory keyword, string memory encryptedData) public {\n    keywordToData[keyword].push(encryptedData);\n  }\n\n  // Store array keywords and encrypted data in a mapping\n  function storeMultiple(string[] memory keywords, string memory encryptedData) public {\n\n    for (uint i = 0; i < keywords.length; i++) {\n      keywordToData[keywords[i]].push(encryptedData);\n    }\n  }\n\n  // Allow authenticated user to retrieve encrypted data using keyword\n  function retrieve(string memory keyword) public view returns (string memory) {\n    // Stringify and return\n    // encode array of strings\n    // return getBytes(0, keywordToData[keyword].length-1, keywordToData[keyword]);\n    return keywordToData[keyword][2];\n  }\n\n}\n\n// Create a smart contract to implement Searchable Symmetric Encryption Scheme\n",
  "sourcePath": "D:\\Lang\\RIS\\SearchableEncryption\\contracts\\SearchableEncryptionScheme.sol",
  "compiler": {
    "name": "solc",
    "version": "0.5.16+commit.9c3226ce.Emscripten.clang"
  },
  "schemaVersion": "3.4.3",
  "updatedAt": "2021-11-18T10:23:28.762Z",
  "devdoc": {
    "methods": {}
  },
  "userdoc": {
    "methods": {}
  }
}